:100000000000042071030000590300005B0300009E
:100010005D0300005F0300006103000000000000BA
:10002000000000000000000000000000630300006A
:100030006503000000000000670300006903000082
:100040006B0300006B0300006B0300006B030000F8
:100050006B0300006B0300006B0300006B030000E8
:100060006B0300006B0300006B0300006B030000D8
:100070006B0300006B0300006B0300006B030000C8
:100080006B0300006B0300006B0300006B030000B8
:100090006B0300006B0300006B0300006B030000A8
:1000A0006B0300006B0300006B0300006B03000098
:1000B0006B0300006B030000000000000000000064
:1000C0006B0300006B0300006B0300006B03000078
:1000D0006B0300006B0300006B0300006B03000068
:1000E0006B0300006B0300006B03000000000000C6
:1000F000000000006B030000000000006B03000024
:1001000000000000000000000000000000000000EF
:1001100000000000000000000000000000000000DF
:1001200000000000000000000000000000000000CF
:1001300000000000000000000000000000000000BF
:1001400000000000000000000000000000000000AF
:10015000000000000000000000000000000000009F
:10016000000000000000000000000000000000008F
:10017000000000000000000000000000000000007F
:10018000000000000000000000000000000000006F
:10019000000000000000000000000000000000005F
:1001A000000000000000000000000000000000004F
:1001B000000000000000000000000000000000003F
:1001C000000000000000000000000000000000002F
:1001D000000000000000000000000000000000001F
:1001E000000000000000000000000000000000000F
:1001F00000000000000000000000000000000000FF
:10020000344935480A1A02D0072291438D463349B2
:1002100033480A1A06D00722914381F30988022243
:1002200082F314882F483049304A00F041F83048B2
:100230003049314A00F03CF830483149314A00F049
:1002400037F831483149324A00F032F83148324902
:10025000324A00F02DF832483249334A00F028F88B
:1002600032483349334A00F023F8334833490022F7
:1002700000F029F832483349002200F024F83248CF
:100280003249091A00F03AFC314A90471F48204988
:10029000884205D00268043003B4904703BCF7E7F6
:1002A00000208646EC46002000212A4A9047FEE7BF
:1002B000884207D0521A05D0037801300B70013103
:1002C000013AF9D17047884202D002700130FAE752
:1002D000704700000000042000E00320000004201C
:1002E00000000420480B0000000000200400002053
:1002F000CC030000CC030000100B0000480B0000F2
:100300000000002000000020100B0000100B000077
:10031000100B0000100B0000100B0000100B000071
:10032000100B0000100B0000460B00004C0B0000EF
:100330000400002004000020040000202800002009
:10034000280000202800002028000020282000206D
:1003500099030000CD060000FEE7FEE7FEE7FEE79A
:10036000FEE7FEE7FEE7FEE7FEE7FEE700F002B885
:10037000FFF7FCBF0F484FF00701884385460E4842
:1003800080470E48016841F470010160BFF34F8F50
:10039000BFF36F8FFFF734BF09480A490A4A884202
:1003A00007D0521A05D0037801300B700131013AA1
:1003B000F9D17047000004204107000088ED00E0FB
:0C03C000100B00000000002000000020D6
:1003CC0086B003900291019201238DF817309DF8AD
:1003DC001730214A039B13601F4A029B53601E4A2D
:1003EC00019B9360039B44F20102934213D0039B45
:1003FC0044F20202934221D1019B174AD360164B5F
:10040C00DB681B881A46144B9A61134BDB685B68DC
:10041C00114AD36112E0019B0F4A13610E4B1B6909
:10042C009B680D4A53610C4B1B691B680A4A93610C
:10043C00094B1B695B68084AD36100BF72B600BFE9
:10044C0000BF9DF81730DBB2002BFAD162B600BFAB
:10045C0000BF06B0704700BF0400002000B587B095
:10046C0003900291019272B600BF039B44F2010209
:10047C00934207D0039B44F20202934205D1019BA5
:10048C00059303E0019B049300E000BF074B1B683E
:10049C0003F00103002B00D000BE019A02990398CF
:1004AC00FFF78EFF00BF07B05DF804FBF0ED00E036
:1004BC0000B585B003460091ADF80630BDF80630A6
:1004CC00ADF80830009B039302AB1A46002144F2AE
:1004DC000200FFF7C3FF00BF05B05DF804FB00008E
:1004EC0000B585B00190019B002B0AD0074B43F05F
:1004FC0001030393019B9B010293039B0298984772
:10050C0000E000BF05B05DF804FB00BF400B00002D
:10051C0000B583B00190019B002B0AD04FF47A7088
:10052C00FFF7DEFF019B013B0193019B002BF5D1F3
:10053C0000E000BF03B05DF804FB000000B583B021
:10054C000190019B1B682F2B04D90B4940F2CD1055
:10055C00FFF7AEFF019B1B681F2B02D84FF0A04387
:10056C0006E0019B1B6803F01F02019B1A60034B02
:10057C00184603B05DF804FB100B0000000300509C
:10058C0000B585B00190084611461A4603468DF811
:10059C0003300B468DF8023013468DF8013001AB59
:1005AC001846FFF7CBFF03909DF803209DF802300F
:1005BC005B001A439DF801309B001A439DF81830DC
:1005CC001B0242EA03019DF81C301B04019A1943DB
:1005DC00039B02F5E07243F8221000BF05B05DF8F2
:1005EC0004FB00B585B00390002301930023009316
:1005FC000023012201210398FFF7C2FF00BF05B0C1
:10060C005DF804FB00B585B0019001AB1846FFF70F
:10061C0095FF0390019B012202FA03F319460398FC
:10062C0000F03AF800BF05B05DF804FB00B585B0EA
:10063C00019001AB1846FFF781FF0390019B01224B
:10064C0002FA03F31946039800F030F800BF05B026
:10065C005DF804FB00B585B0019001AB1846FFF7BF
:10066C006DFF0390039BD3F804350293029BDA438E
:10067C00019B012101FA03F31A40039BC3F80825DF
:10068C00019B01229A40029B1A40039BC3F80C2544
:10069C0000BF05B05DF804FB82B001900091019B96
:1006AC00009AC3F8082500BF02B0704782B00190D1
:1006BC000091019B009AC3F80C2500BF02B0704753
:1006CC0008B51B20FFF78DFF0F20FFF78AFF1B20BB
:1006DC00FFF798FF4FF4FA70FFF71AFF1B20FFF794
:1006EC00A5FF4FF4FA70FFF713FF0F20FFF7B2FFCF
:1006FC00EDE70000BFF34F8F00BF074BDB6803F43F
:10070C00E0620549054B1343CB60BFF34F8F00BF2D
:10071C0000BF00BFFCE700BF00ED00E00400FA05DD
:10072C00024B034A1A6000BF704700BF0000002054
:10073C000090D00308B500F027F90346002B0ED02B
:10074C004FF080430022C3F80C214FF0804300226D
:10075C00C3F810214FF080430022C3F8382500F075
:10076C0037F90346002B76D04FF080537D4AD3F8EF
:10077C000434C2F820354FF080537A4AD3F8083449
:10078C00C2F824354FF08053764AD3F80C34C2F8B3
:10079C0028354FF08053734AD3F81034C2F82C35F7
:1007AC004FF080536F4AD3F81434C2F830354FF001
:1007BC0080536C4AD3F81834C2F834354FF0805358
:1007CC00684AD3F81C34C2F840354FF08053654A60
:1007DC00D3F82034C2F844354FF08053614AD3F833
:1007EC002434C2F848354FF080535E4AD3F828348D
:1007FC00C2F84C354FF080535A4AD3F82C34C2F817
:10080C0050354FF08053574AD3F83034C2F8543532
:10081C004FF08053534AD3F83434C2F860354FF05C
:10082C008053504AD3F83834C2F864354FF08053B3
:10083C004C4AD3F83C34C2F868354FF08053494ADF
:10084C00D3F84034C2F86C354FF08053454AD3F896
:10085C004434C2F8703500F0DFF80346002B02D0A8
:10086C00414B424A1A6000F0E9F80346002B03D0D2
:10087C003F4BFB22C3F8182500F0F2F80346002B7F
:10088C000AD03C4B1B6823F00F023B4B1B6803F058
:10089C000F03384913430B6000F0F4F80346002BA8
:1008AC0003D0364B4FF400721A6000F0FDF803468B
:1008BC00002B0DD04FF08043D3F8003403F001032C
:1008CC00002B05D04FF080436FF00102C3F80024D9
:1008DC002B4BD3F888302A4A43F47003C2F8883083
:1008EC00BFF34F8F00BFBFF36F8F00BF4FF01023CC
:1008FC00D3F80032002B05DB4FF01023D3F8043271
:10090C00002B2BDA1F4B0122C3F8042500BF1D4B13
:10091C00D3F80034002BFAD04FF010231222C3F876
:10092C00002200BF174BD3F80034002BFAD04FF045
:10093C0010231222C3F8042200BF124BD3F8003448
:10094C00002BFAD00F4B0022C3F8042500BF0D4B2F
:10095C00D3F80034002BFAD0FFF7CCFEFFF7E0FE03
:10096C0000BF08BD00C000408C5600404881030009
:10097C0000F00040E40E0040580200104096024087
:10098C0000ED00E000E001400F4B1B68082B17D175
:10099C000E4B1B68002B01D1012312E00B4B1B6883
:1009AC00012B01D101230CE0084B1B68022B01D158
:1009BC00012306E0054B1B68032B01D1012300E04A
:1009CC0001231846704700BF30010010340100109D
:1009DC000F4B1B68082B17D10E4B1B68002B01D13A
:1009EC00012312E00B4B1B68012B01D101230CE0FE
:1009FC00084B1B68022B01D1012306E0054B1B6839
:100A0C00032B01D1012300E001231846704700BFDE
:100A1C003001001034010010064B1B68082B05D167
:100A2C00054B1B68002B01D1012300E00023184665
:100A3C00704700BF3001001034010010064B1B68DA
:100A4C00082B05D1054B1B68002B01D1012300E0BD
:100A5C0000231846704700BF30010010340100100D
:100A6C00064B1B68082B05D1054B1B68002B01D1CD
:100A7C00012300E000231846704700BF300100102E
:100A8C0034010010064B1B68082B05D1054B1B6865
:100A9C00002B01D1012300E000231846704700BF52
:100AAC0030010010340100100F4B1B68082B17D1BC
:100ABC000E4B1B68002B01D1012312E00B4B1B6862
:100ACC00012B01D101230CE0084B1B68022B01D137
:100ADC00012306E0054B1B68032B01D1012300E029
:100AEC0001231846704700BF30010010340100107C
:100AFC00072904D90023024AC0E90031106070476D
:040B0C0024000020A1
:100B10002E2E2F2E2E2F2E2E2F2E2E2F2E2E2F2EF0
:100B20002E2F6D6F64756C65732F6E7266782F68EB
:100B3000616C2F6E72665F6770696F2E68000000CF
:060B40000338FDD87047E8
:040B48000090D00346
:040000030000037185
:00000001FF
